:10000000D4C00000FAC00000F8C00000F6C0000034
:10001000F4C00000F2C00000F0C00000EEC000001C
:10002000ECC00000EAC000000C94442E0C94022D99
:10003000E4C00000E2C00000E0C00000DEC000003C
:10004000DCC00000DAC00000D8C00000D6C000004C
:10005000D4C00000D2C00000D0C000000C946E25B7
:10006000CCC000000C94262A0C94582AC6C000006C
:10007000C4C00000C2C00000C0C00000BEC000007C
:10008000BCC00000BAC00000B8C000000C94231A25
:10009000B4C00000B2C00000B0C00000AEC000009C
:1000A000ACC00000AAC00000A8C0000007060504FC
:1000B0000100080A0B0C0D090000000200090F00E6
:1000C00000030401000C000000000000000000001C
:1000D00000000000000000040802011040804010F1
:1000E000204080408008020401804020100201105E
:1000F000801020404020040404040403040502028C
:1001000002020403020202020606060606060404B0
:10011000020202040400000000250028002B002E2B
:1001200000310000000000240027002A002D0030CC
:1001300000080B0002020200000904000001020294
:100140000000052400100105240101010424020619
:100150000524060001070581031000400904010081
:10016000020A0000000705020240000007058302A2
:1001700040000012010002EF0201404123368000DE
:10018000010102030141726475696E6F204C4C439A
:100190000041726475696E6F204C656F6E617264A8
:1001A0006F0004030904E9287D2A11241FBECFEF44
:1001B000DAE0DEBFCDBF13E0A0E0B1E0ECEDF1E6A8
:1001C00002C005900D92A035B107D9F726E0A0E551
:1001D000B3E001C01D92A136B207E1F710E0C5ED12
:1001E000D0E004C02197FE010E948E2FC33DD107AD
:1001F000C9F70E947F220C94EC3002CFCF93DF939B
:10020000882349F0EB0181500E946A2699838883F4
:10021000DF91CF910895FB0111821082F9CF0F93E6
:100220001F938B019C0183E03695279517950795C1
:100230008A95D1F7075A1C4F462F477021E030E0CE
:10024000F90102C0EE0FFF1F4A95E2F7AF01F80176
:1002500020812423CB010196211102C090E080E08F
:100260001F910F9108950F931F938B019C0183E0C1
:1002700036952795179507958A95D1F7677081E090
:1002800090E001C0880F6A95EAF7F801E75AFC4F41
:100290002081452B31F48095822380831F910F911B
:1002A0000895822BFACFCF92DF92EF92FF92CF93F5
:1002B000DF936B017C0160E082E1C816D104E104A8
:1002C000F10490F482E18C0D0E948127E6012196D1
:1002D000AE01C701B601C7DFCE01DF91CF91FF901C
:1002E000EF90DF90CF9008958C2DEECF882341F0D2
:1002F0008150682F70E090E080E050E040E0B3CFA4
:100300000895CF92DF92EF92FF92CF93882351F11D
:100310006A017B01CFEFC80F20E030E0A901CB01DB
:10032000B6010E947F2387FF11C0C701B601905814
:100330000E9488239B01AC016C2F70E090E080E06C
:10034000CF91FF90EF90DF90CF90B2C0C701B60180
:100350000E9483238C2FCF91FF90EF90DF90CF905E
:100360000C949426CF91FF90EF90DF90CF9008955A
:100370000F931F938B019C0183E03695279517956A
:1003800007958A95D1F7005B1C4F462F477021E0F7
:1003900030E0F90102C0EE0FFF1F4A95E2F7AF010E
:1003A000F80120812423CB010196211102C090E0A5
:1003B00080E01F910F9108950F931F938B019C0173
:1003C00083E036952795179507958A95D1F767703D
:1003D00081E090E001C0880F6A95EAF7F801E05BE0
:1003E000FC4F2081452B31F48095822380831F911F
:1003F0000F910895822BFACF2F923F924F925F92E6
:100400006F927F928F929F92AF92BF92CF92DF9224
:10041000EF92FF920F931F93CF93DF93D62EC72EA9
:10042000782E692E49015A01280161E08D2D0E9424
:100430008127CD2DDC2D8E010F5F1F4FA8016D2D63
:100440007C2D872D962DB8DF20E030E0A901C20178
:10045000B7010E940725181664F4C201B7010E9473
:1004600088232B01C501B4010E948823A201CE017B
:1004700023D0C801DF91CF911F910F91FF90EF9092
:10048000DF90CF90BF90AF909F908F907F906F90B4
:100490005F904F903F902F900895882341F08150B6
:1004A000682F70E090E080E050E040E085CF089554
:1004B000862FB9010C9494269C01FC01E854FF4F4F
:1004C000E491E150EF30B8F4F0E0E759FD4F0C94BF
:1004D0008E2F78027F0282029902AE027B027B029B
:1004E0007B02C302DA02EF02040317037B02230339
:1004F00084B5806884BD60E0822F0C94BD2784B5EC
:100500008062F8CF809180008C7F82608093800031
:1005100080918100807E8061682B60938100509380
:1005200087004093860080918000806880938000DF
:10053000E2CF809180008C7F8260809380008091E8
:100540008100807E8061682B6093810050938700DA
:1005500040938600809180008062E8CF8091800087
:100560008C7F82608093800080918100807E80619A
:10057000682B6093810050938700409386008091A0
:1005800080008860D3CF809190008C7F82608093C0
:10059000900080919100807E8061682B6093910033
:1005A00050939700409396008091900080688093CC
:1005B0009000A1CF809190008C7F8260809390000A
:1005C00080919100807E8061682B609391005093B0
:1005D000970040939600809190008062E8CF8091D0
:1005E00090008C7F82608093900090919100907E2B
:1005F0009061692B6093910050939700409396000F
:10060000809190008860D3CF8091C100807F682B5B
:100610006093C1004093D1008091C00080688093B6
:10062000C0008091C0008F7B8093C00064CF809118
:10063000C100807F682B6093C1004093D1008091FE
:10064000C0008062F1CF8091C100807F682B6093F1
:10065000C1004093D1008091C20088608093C200A5
:100660008091C2008B7F8093C20045CF8F929F9272
:10067000AF92BF92CF92DF92EF92FF920F931F93B0
:10068000CF93DF9300D0CDB7DEB7C0908E01D0906E
:100690008F01E0909001F0909101A7019601609187
:1006A00031067091320680913306909134060E9493
:1006B0007F23882341F0C0923106D0923206E09227
:1006C0003306F092340662E170E080E090E0A7DD4E
:1006D0009093300680932F0643E050E0BE016F5F99
:1006E0007F4F8CDD69817A8190E080E00E94B423A5
:1006F0002091A2013091A3014091A4015091A50144
:100700000E940B2520919201309193014091940118
:10071000509195010E941A232091A6013091A701C2
:100720004091A8015091A9010E940B2560932106D8
:10073000709322068093230690932406E09133045D
:10074000F0913404209196013091970140919801E5
:100750005091990160817181828193810E947F23F0
:1007600087FF30C180919A0190919B01A0919C01DB
:10077000B0919D018093250690932606A0932706AD
:10078000B093280663E070E080E090E0F1DD9093A4
:100790003C0680933B06A0902506B090260600916B
:1007A000270610912806C090AA01D090AB01E090D6
:1007B000AC01F090AD019601A701B501C8010E94FE
:1007C0000725181694F0C090AE01D090AF01E090CC
:1007D000B001F090B1019601A701B501C8010E94D6
:1007E0007F2387FD02C0650178012091B20130911D
:1007F000B3014091B4015091B501B601C7010E9407
:100800000B250E94F1236B017C01B1D28111E3C061
:10081000C701B60181D28111DEC020E030E040E89E
:1008200053E4C701B6010E940B246B017C0120E058
:1008300030E0A9010E947F2387FFD0C0C701B60125
:1008400090580E948823619570E090E080E00E94BB
:10085000B623AB01BC0180913B0690913C0651DD73
:1008600082E090E00E947219E0913304F091340428
:10087000408151816281738190E080E00E946E1915
:10088000609128047091290480912A0490912B048E
:100890000E94B42320E030E040E05FE30E940B259B
:1008A000AB01BC0181E090E00E946E1980902C04A5
:1008B00090902D04A0902E04B0902F0420E030E002
:1008C00040E85FEBC501B4010E947F23009133042F
:1008D00010913404882319F1F801C080D180E2809E
:1008E000F380A7019601C501B4010E941A234B01B0
:1008F0005C0120E030E040E054E3C701B6010E9413
:100900000B259B01AC01C501B4010E9407251816F7
:1009100034F08EEC91E0909389038093880380916A
:100920003204882331F08EEC91E090938903809318
:100930008803609120047091210480912204909199
:1009400023046F5F7F4F8F4F9F4F609320047093FE
:10095000210480932204909323040E94B4239B01DA
:10096000AC0160912404709125048091260490913B
:1009700027040E940B25F80160837183828393838F
:100980008091280490912904A0912A04B0912B040D
:100990000196A11DB11D8093280490932904A09372
:1009A0002A04B0932B040F900F90DF91CF911F91E9
:1009B0000F91FF90EF90DF90CF90BF90AF909F90FE
:1009C0008F90089580919E0190919F01A091A00128
:1009D000B091A101CFCEC12CD12C7601C701B601B7
:1009E0000E94882331CF8F929F92AF92BF92DF9265
:1009F000EF92FF920F931F93CF93DF9384E090E0E9
:100A000054D1E8E8F3E080E394E097838683C3E37E
:100A1000D4E0D093C903C093C80304E214E0158B5B
:100A2000048BF093F303E093F203F583E48321E076
:100A300030E0DC012D933C9382EE91E09387828736
:100A400025E334E03983288340E050E86BEB74E41D
:100A500040932C0450932D0460932E0470932F0424
:100A600040E050E060E07FE3E801488359836A8317
:100A70007B834EE054E08FEC9AE5ADE0B5EEEA0101
:100A800088839983AA83BB838CE792EFA6E4B7EAB5
:100A90008093120490931304A0931404B09315044C
:100AA00080ED94E2AAECB0EC8093160490931704C6
:100AB000A0931804B09319048CE59BE0ADE4BFED5E
:100AC00080931A0490931B04A0931C04B0931D04FC
:100AD000ACE7B3E0B383A283E6E7F3E01196FC93BF
:100AE000EE9384EF91E09183808393838283958357
:100AF0008483CEE1D4E01596DC93CE9314971396BD
:100B00005C934E93129717963C932E931697ECE6B0
:100B1000F3E08AE0DF011D928A95E9F7E2E6F3E06F
:100B2000F983E88384E190E09183808386E691E015
:100B3000938382838EE391E0958384838AE191E0BD
:100B40009783868386E091E091878087C9E2D6E02B
:100B5000188280918E0190918F01A0919001B091A7
:100B6000910188879987AA87BB871D82812C912C48
:100B70005401839489829A82AB82BC8262E170E0E4
:100B800080E090E090DB9F838E83DD24D394DD8230
:100B90001C86198A8D869E86AF86B88AE12CF12C38
:100BA0008701A801970163E070E080E090E024DC19
:100BB0009B8B8A8BD98ADF91CF911F910F91FF90E8
:100BC000EF90DF90BF90AF909F908F9008958091AD
:100BD000290681111DC081E08093290680912A0693
:100BE00090912B06A0912C06B0912D060197A1059E
:100BF000B10571F480912E06882351F062E170E016
:100C000080E090E00CDB9093300680932F066EDB43
:100C10008091350681112AC081E08093350680914C
:100C2000360690913706A0913806B09139060197A3
:100C3000A105B105D9F480913A068823B9F063E0A3
:100C400070E080E090E094DB90933C0680933B065C
:100C500040E050E0BA0155DB63E070E080E090E0F6
:100C600087DB90933C0680933B0617CC089560E0A9
:100C700070E080E89FE7089560E070E080E89FE71B
:100C8000089560E070E080E89FEF089560E070E014
:100C900080E89FEF089560E070E080EC9FEF08959A
:100CA00060E070E080EC9FEF0895F5DF60934F0601
:100CB000709350068093510690935206F1DF609333
:100CC0004306709344068093450690934606CFDF13
:100CD00060934B0670934C0680934D0690934E069E
:100CE000CBDF609347067093480680934906909344
:100CF0004A06C7DF609353067093540680935506E7
:100D000090935606C3DF60935706709358068093FE
:100D1000590690935A060895CF92DF92EF92FF9270
:100D2000CF936B017C01AC019B01609147067091F0
:100D300048068091490690914A060E947F23C1E0AF
:100D4000882371F0A70196016091570670915806AB
:100D50008091590690915A060E947F238111C0E02C
:100D60008C2FCF91FF90EF90DF90CF9008950F934D
:100D70001F938B019C010027112720783F770115D5
:100D8000110520483F4749F4AB01BC016F77772735
:100D900081E0452B462B472B09F480E01F910F91F2
:100DA0000895CF93DF93CDB7DEB72A970FB6F894A7
:100DB000DEBF0FBECDBFB0E0A0E089839A83AB83D6
:100DC000BC83CB01770FAA0BBB0B8D839E83AF83B4
:100DD000B8879E01275F3F4FAE014F5F5F4F68E0CE
:100DE00070E080914104909142040E949E21811103
:100DF00010C081E029853A852830310509F480E06A
:100E00002A960FB6F894DEBF0FBECDBFDF91CF910B
:100E1000089581E0F5CF0F931F93CF93DF9300D018
:100E2000CDB7DEB78B019E012F5F3F4FAC018091A4
:100E30004104909142040E949E2181110EC081E0E4
:100E400029813A812017310709F480E00F900F9033
:100E5000DF91CF911F910F91089581E0F7CFCF934C
:100E6000DF93EC011092450410924404AC0160E061
:100E700070E0CB010E943E13AE0161E070E080E0C3
:100E800090E00E943E138091410490914204DF91D2
:100E9000CF910C94EC21EF92FF920F931F93CF937D
:100EA000DF9300D01F92CDB7DEB78C0180913F0455
:100EB0009091400480179107CCF480913D0490916B
:100EC0003E04009731F00E944A3010924004109284
:100ED0003F04C8010E94AE2F90933E0480933D04CE
:100EE000892B89F11093400400933F04F12CE12CED
:100EF00080913D0490913E04E016F1063CF10F9084
:100F00000F900F90DF91CF911F910F91FF90EF9075
:100F1000089589819A81E80EF91EE016F10684F49D
:100F20009E012D5F3F4FAE014F5F5F4F61E070E06C
:100F300080914104909142040E94BA20882349F391
:100F400090E080E0DCCFF12CE12CE7CF9C012E0D6E
:100F50003F1DAE014F5F5F4FB8016E197F09809151
:100F60004104909142040E94BA208111E9CF898105
:100F70009A81E80EF91EBCCF0F931F93CF93DF9396
:100F80008B01EA010EDF811109C0209739F0B80109
:100F9000CE01DF91CF911F910F913DCFDF91CF9186
:100FA0001F910F910895CF92DF92EF92FF92CF930E
:100FB000DF93CDB7DEB728970FB6F894DEBF0FBE2C
:100FC000CDBF6B01F12CE12CC982DA82EB82FC826D
:100FD0002D833E834F835887AE014F5F5F4F68E09C
:100FE00070E0CADF28960FB6F894DEBF0FBECDBF03
:100FF000DF91CF91FF90EF90DF90CF9008958F9287
:101000009F92AF92BF92CF92DF92EF92FF920F9397
:101010001F93CF93DF937C01EB01CA0169013BDF92
:101020000097B1F42FEF3FEFA90161E070E0C70135
:10103000BADFC1E08C2FDF91CF911F910F91FF900C
:10104000EF90DF90CF90BF90AF909F908F900895DA
:10105000FC0181909190A190B190BF01FCE1EF164D
:10106000F10479F4A5019401CE010E94A411C82FC6
:10107000A5019401882361F061E070E0C70193DF6E
:10108000D9CF95018401AB01B601CE0160D7EFCF76
:1010900070E060E0C701DF91CF911F910F91FF9049
:1010A000EF90DF90CF90BF90AF909F908F907BCFCD
:1010B0000F931F93CF93DF93EC018B010E94B62017
:1010C00090934204809341040097B9F0A801BE01B7
:1010D0000E943420EC01892B51F0809141049091C1
:1010E00042040E94B9201092420410924104CE01A1
:1010F000DF91CF911F910F910895C6ECD2E0EDCF13
:1011000080914104909142040C94B3204F925F92DD
:101110006F927F92AF92BF92CF92DF92EF92FF9247
:101120000F931F93CF93DF9300D000D000D0CDB7A3
:10113000DEB7209145047A012B013C0121113FC00B
:1011400026960FB6F894DEBF0FBECDBFDF91CF91CC
:101150001F910F91FF90EF90DF90CF90BF90AF90D5
:101160007F906F905F904F9008950B811C810A0DC6
:101170001B1DF80160817181828193814CDE811198
:1011800035C0F801648175811616170654F1C60141
:10119000880F991FED81FE81E80FF91FB301A201AD
:1011A000808191810E947013FFEFCF1ADF0A88E0DF
:1011B000A80EB11C89819A81C816D906B4F297018C
:1011C000B301A201CE0101960E940E1889819A8175
:1011D000181619060CF0B4CFB12CA12CD12CC12CAF
:1011E000E9CF8681978117DE882389F2C70137DE30
:1011F000A7CFCF93DF93EC01AC0160E070E0CB01AF
:1012000085DFAE0161E070E080E090E0DF91CF919A
:101210007DCFCF9380914104909142040E940F2092
:10122000C82F811109C060E070E0CB0150D561E0AA
:1012300070E080E090E04BD58C2FCF9108950F9314
:101240001F9389019A01AB01BC01809141049091E7
:1012500042040E94EB211F910F9108954F925F92DB
:101260006F927F928F929F92AF92BF92CF92DF92B6
:10127000EF92FF920F931F93CF93DF93CDB7DEB71B
:1012800062970FB6F894DEBF0FBECDBF6C018B0125
:101290005A0180914504882309F455C08091450482
:1012A000882309F45BC01A821982F12CE12CE8E052
:1012B0008E2E912C29E030E02C0F3D1F2E0D3F1D6E
:1012C000AE014F5F5F4FB4016E197F0980914104F9
:1012D000909142040E94BA2029813A8181118DC2E5
:1012E000E20EF31EE114F10421F088E0E816F104A7
:1012F0000CF3121613060CF031C0809144048111D6
:1013000004C019861A861B861C8689859A85AB853A
:10131000BC8580319105A105B10500F5FC01ED56B4
:10132000F64F0C948E2F060A9A0BFD0BAE09F60AA7
:10133000270BF609FE09DA09E40BD30BE00BAE0923
:10134000AE09AE09C50965E474E08091410490914D
:1013500042040E941120882309F4A0CF62960FB6A0
:10136000F894DEBF0FBECDBFDF91CF911F910F91DB
:10137000FF90EF90DF90CF90BF90AF909F908F90B5
:101380007F906F905F904F900895D6011696ED91E3
:10139000FC9180819181A281B38189839A83AB83FF
:1013A000BC83AE014F5F5F4F64E070E085E190E089
:1013B000E3DDD4CF8D859E856EDD2FEF3FEFA90154
:1013C00061E070E0009771F0FC01C080D180E280A4
:1013D000F380A801C701B6010E94E912A701960196
:1013E00070E060E08DE190E0DEDDB8CF4D855E8598
:1013F0009801B6018BE190E002DEB0CF4D855E85AD
:101400002FEF3FEFB6018CE190E0F6CFD6011496B6
:10141000ED91FC9100811181F80182809380A08080
:10142000B18070E1472E512C612C712C49825A8277
:101430006B827C8288E090E0A0E0B0E08D839E83A8
:10144000AF83B8879E012F5E3F4FAE014F5F5F4F66
:1014500068E070E080914104909142040E949E21D6
:101460008823D9F010E000E0C80162960FB6F89426
:10147000DEBF0FBECDBFDF91CF911F910F91FF90C7
:10148000EF90DF90CF90BF90AF909F908F907F9024
:101490006F905F904F900C944A3089899A89089791
:1014A00009F7D801ED90FC90B8E0EB0EF11CEE0CC2
:1014B000FF1CEE0CFF1CC7010E94AE2F8C01892B74
:1014C00089F249825A826B827C82C7010F2C000C00
:1014D000AA0BBB0B8D839E83AF83B8879E012F5EC3
:1014E0003F4FAE014F5F5F4F68E070E08091410475
:1014F000909142040E949E218111B6CF89899A89D8
:10150000089709F0B1CFD6011296ED91FC91408178
:10151000518162817381D8014D935D936D937C936A
:101520001397448155816681778114964D935D931D
:101530006D937C93179740855185628573851896C6
:101540004D935D936D937C931B9784859585A685BC
:10155000B785F80184879587A687B787108A118A8F
:10156000128A138A84E090E0A0E0B0E0848B958B2F
:10157000A68BB78B8091B8019091B901B0E0A0E043
:10158000808F918FA28FB38FC5010B2C000CAA0BFB
:10159000BB0B848F958FA68FB78FF401D8019096DF
:1015A00090E080E08A159B05BCF09E012F5E3F4FC6
:1015B000A801B70180914104909142040E949E21AC
:1015C000811152CF89899A89E816F90609F04CCF22
:1015D00081E08093440448CF4191519170E060E0F4
:1015E0004D935D936D937D930196DCCF8D859E85A4
:1015F000AF85B8890097A105B10521F481E08093FA
:101600004304ACCE48DC009781F481E090E0A0E098
:10161000B0E089839A83AB83BC83AE014F5F5F4F99
:1016200064E070E082E190E0C3CEBC01C601A8D2C4
:1016300019821A821B821C82AE014F5F5F4F64E0E9
:1016400070E082E190E098DC8823C1F287CED60179
:101650001496ED91FC910190F081E02DE084F184ED
:10166000E114F10409F460C0D701CD90DC90A280B0
:10167000B38070E060E090E080E08C159D0584F11F
:1016800083E190E08EDB10E000E0811167CE0C1565
:101690001D050CF063CED7011296ED91FC91C801A7
:1016A00023E0880F991F2A95E1F7E80FF91FA2811F
:1016B000B381AA0FBB1FAA0DBB1D2D913C91868142
:1016C0009781289FB001299F700D389F700D1124BC
:1016D00080819181A0DB811141CE0F5F1F4FD7CF59
:1016E0009C0143E0220F331F4A95E1F7F701A281E5
:1016F000B381A20FB31F1296ED91FC911397EE0FD9
:10170000FF1FEA0DFB1D0190F081E02D16964D9113
:101710005C91E49F9001E59F300DF49F300D112402
:10172000620F731F0196A9CF70E060E083E190E043
:1017300038DB14CE50E040E070E060E081E190E002
:101740001BDC81110BCEF090CE0460E070E0CB0189
:10175000E5D3FF2029F0A80160E070E0CB01D6DCE2
:10176000A80160E070E0CB01DED261E070E080E0D3
:1017700090E0D4D3FF2031F0A80161E070E080E078
:1017800090E0C4DCA80161E070E080E090E0CBD2A2
:1017900010924504109244048091410490914204B7
:1017A0000E941C20DBCD81E090E09093D0048093D8
:1017B000CF0450E040E070E060E086E190E0F8CDDA
:1017C00081E0F5018083CACD8D859E8564DB2FEF96
:1017D0003FEFA90161E070E0009761F0DC01CD907E
:1017E000DD90ED90FC90C701B60153D7A70196019B
:1017F00070E060E08EE190E0F7CDC80130DBAECD67
:10180000CF92DF92EF92FF92CF93DF93EC01C12C46
:10181000D12C7601C701B60181D3AE01C701B60153
:1018200075DCAE01C701B6017ED280913D04909176
:101830003E04009731F00E944A3010923E0410920C
:101840003D04CA94CD28CE28CF2879F58091440450
:10185000F12C882351F050E040E070E060E084E13A
:1018600090E08ADBF82E109244048091450488238E
:1018700041F01092450481E090E09093B90180938B
:10188000B80180914104909142040E941F208091F0
:101890004104909142040E94B9208F2DDF91CF9195
:1018A000FF90EF90DF90CF900895C12CD12C76015E
:1018B000C394B0CFCF93DF93EC01AC0160E070E054
:1018C000CB010E947E17AE0161E070E080E090E005
:1018D000DF91CF910C947E1760E070E0CB010E9405
:1018E000EB1761E070E080E090E00C94EB17CF9292
:1018F000DF92EF92FF920F931F93CF93DF93EC0150
:101900006A017B0100E010E0980113D701E010E0CC
:1019100020E030E0B701A601CE010BD7DF91CF91D7
:101920001F910F91FF90EF90DF90CF900895EF926D
:10193000FF920F931F93CF93DF93EA01F901DC012C
:101940001496ED90FC90159712964D915C9113971B
:101950004E0D5F1D2881398118960D911C911997A4
:101960000217130730F00D911C911197012B09F408
:1019700041C08A01021B130BDC0118968D919C91CA
:101980008E199F09800F911F86179707DCF1C901F7
:10199000860F971F8417950778F4718360833383CC
:1019A0002283158214821782168288819981680F9A
:1019B000791F7983688316C0118300833383228360
:1019C000601B710B7583648390E080E01616170628
:1019D00014F49E2D8F2D96838783D701A60FB71FF2
:1019E000B983A88380E0DF91CF911F910F91FF9081
:1019F000EF90089518968D919C91821B930B8617FA
:101A000097075CF681E0EFCFCF92DF92EF92FF92E3
:101A1000CF93DF936B0184E4869FE001879FD00D15
:101A20001124CA5BDB4F8AA99BA9009721F00E9471
:101A30004A301BAA1AAA84E48C9DF0018D9DF00DFA
:101A40001124EA5BFB4F86A997A9009711F00E9429
:101A50004A3084E48C9DF0018D9DF00D1124EA5BE9
:101A6000FB4F138A128A168A178A108E118E128ED5
:101A7000138E148E158E168E178E10A211A281E071
:101A800090E093A382A315A214A216A217A210A6F7
:101A900011A613A612A615A614A616A617A610AA76
:101AA00011AA13AA12AA15AA14AA17AA16AA11AE45
:101AB00010AE12AE13AE14AE15AEDF01DE961D925F
:101AC0001D921D921C921397EE5BFF4F11821082A4
:101AD000DF91CF91FF90EF90DF90CF900895CF935B
:101AE000DF93FB01DC016D917C91DB011696CD91BA
:101AF000DC918081918123E0880F991F2A95E1F77D
:101B0000AA81BB81A80FB91F8D919C911197248543
:101B10003585220F331FEB016A817B81EB01C20FF8
:101B2000D31F0990D881C02D14962D913C9161E06E
:101B300070E0232B11F062E070E0C69F9001C79F18
:101B4000300DD69F300D1124A085B1852A9FB0019C
:101B50002B9F700D3A9F700D1124A481B5812A9F8F
:101B6000F0012B9FF00D3A9FF00D11248E0F9F1F57
:101B7000FA019183808373836283DF91CF9108950B
:101B80002F923F924F925F926F927F928F929F928D
:101B9000AF92BF92CF92DF92EF92FF920F931F937B
:101BA000CF93DF9300D000D000D0CDB7DEB7DC01FB
:101BB0001496ED91FC910190F081E02D8085918546
:101BC0009A838983A281B381BC83AB83FB0181901B
:101BD0009190A190B190C12CD12C7601C814D90458
:101BE000EA04FB04CCF026960FB6F894DEBF0FBED5
:101BF000CDBFDF91CF911F910F91FF90EF90DF90BC
:101C0000CF90BF90AF909F908F907F906F905F909C
:101C10004F903F902F900895448055806680778044
:101C20004085518562857385CF0140969E838D8363
:101C3000A081B1819D0183E0220F331F8A95E1F7D6
:101C4000A981BA8112968D919C91D901A80FB91FD3
:101C50002D903C9011970484F585E02DEE0FFF1F29
:101C60008B819C81E80FF91F0190F081E02D149683
:101C70008D919C91892B41F581E090E0E89F900146
:101C8000E99F300DF89F300D1124249F8001259F7E
:101C9000100D349F100D1124249DC001259D900D21
:101CA000349D900D1124A8016D817E81820D931DBC
:101CB0000E94D330ED81FE81E00FF11F9FEFC91A22
:101CC000D90AE90AF90A8ACF82E090E0D7CFCF9308
:101CD000DF93DB01AA54BE4F2C91222369F024E448
:101CE000269FF001279FF00D1124EA5BFB4FEF01C7
:101CF00019922A95E9F71C9224E4269FF001279F68
:101D0000F00D1124EA5BFB4F1482158216821782B4
:101D10001186108613861286118A108A17861686F7
:101D2000DF91CF9171CE2F923F924F925F926F923F
:101D30007F928F929F92AF92BF92CF92DF92EF925B
:101D4000FF920F931F93CF93DF93CDB7DEB7289702
:101D50000FB6F894DEBF0FBECDBF24E4269FF0017E
:101D6000279FF00D1124EA5BFB4F0481158126812A
:101D70003781012B022B032B09F4B7C02A016B0119
:101D80007C0110E000E0812C912C54013F019F0167
:101D9000285F3F4F3C832B83CF0104969E838D8326
:101DA000AB81BC818D919C91ED81FE8140815181FF
:101DB0006281738184169506A606B706E4F10E9437
:101DC0004A30D3011A968D919C91892B09F07EC0DF
:101DD00084E48C9DD0018D9DB00D1124AA5BBB4F76
:101DE000BC83AB8350968D919C910E944A30EB81CD
:101DF000FC81868597850E944A30C701B60104DEC2
:101E0000C701B60128960FB6F894DEBF0FBECDBF4E
:101E1000DF91CF911F910F91FF90EF90DF90CF90C6
:101E2000BF90AF909F908F907F906F905F904F90FA
:101E30003F902F904CCFFC01E00FF11F92819983CE
:101E4000A381AA839F83A887312C212C24143504D5
:101E500064F089819A810E944A30EFEF8E1A9E0ABF
:101E6000AE0ABE0A0C5F1F4F9BCFAF81B885ED91C4
:101E7000FD91B887AF83309759F0848195810E9496
:101E80004A30EF81F8853297808191810E944A30F3
:101E9000BFEF2B1A3B0ADACF800F911FFC01848120
:101EA00095810E944A302B813C812F5F3F4F3C83BC
:101EB0002B83025F1F4FF501808191812B813C8133
:101EC000241535054CF30E944A3082CF10E000E023
:101ED0001C821B8224E42C9DC0012D9D900D112499
:101EE000DC01A05BBB4F5D01E6CF28960FB6F894EE
:101EF000DEBF0FBECDBFDF91CF911F910F91FF903D
:101F0000EF90DF90CF90BF90AF909F908F907F9099
:101F10006F905F904F903F902F90089524E4269FFC
:101F2000F001279FF00D1124EA5BFB4F8289938912
:101F30000497029758F485E090E0938B828B8FEFA3
:101F40009FEFDC01828F938FA48FB58F08952F921E
:101F50003F924F925F926F927F928F929F92AF9239
:101F6000BF92CF92DF92EF92FF920F931F93CF9386
:101F7000DF93CDB7DEB7AA970FB6F894DEBF0FBEDA
:101F8000CDBF9AA389A37E8B6D8B1A01098B1A8B07
:101F90002B8B3C8B84E429893A89829F6001839F43
:101FA000D00C112486010A5B1B4F89899A89AB8961
:101FB000BC89F80180839183A283B383AB01BC0108
:101FC000CD01B1DED601A65BBB4F84E0F1010190EB
:101FD0000D928A95E1F7F4E02F0E311C64E070E079
:101FE000D80114968D919C910E94942FF8019187AD
:101FF0008087892B09F0F5C04D895E8969897A89C6
:102000008B899C8990DE81E0AA960FB6F894DEBF9A
:102010000FBECDBFDF91CF911F910F91FF90EF9039
:10202000DF90CF90BF90AF909F908F907F906F90F8
:102030005F904F903F902F900895A9A5BAA58D91DC
:102040009C91E98DFA8DE80FF91FF88FEF8BD10184
:102050008D919C91880F991FA9A1BAA1ED91FC9136
:10206000E80FF91F80819181EF89F88D918380833A
:10207000D10114962D913D914D915C9117972BA311
:102080003CA34DA35EA362E070E08D899E890E940F
:10209000942FEF89F88D93838283892B09F4ACCF39
:1020A000F8E02F0E311C412C512C32012BA13CA108
:1020B0004DA15EA142165306640675069CF02B8D59
:1020C0003C8D4D8D5E8D2F5F3F4F4F4F5F4F2B8F60
:1020D0003C8F4D8F5E8F498D5A8D4C5F5F4F5A8F6D
:1020E000498F90C0610124E0C20ED11CD101ED9056
:1020F000FC90EE0CFF1CEF89F88D82819381E80E35
:10210000F91E68E070E081E090E00E94942F8C015D
:10211000D7018D939C93892B09F46ECF84E0F6014F
:10212000D80101900D928A95E1F7B8E02B0E311C91
:10213000F80180819181A281B381181619061A06CF
:102140001B06DCF464E070E00E94942FD801159621
:102150009C938E931497892B09F44ECFD12CC12CCC
:10216000812C912C5401F80180819181A281B3814D
:1021700088169906AA06BB0634F0FFEF4F1A5F0ACD
:102180006F0A7F0A93CFF801E480F580EC0CFD1C08
:1021900080E1F101DE01119601900D928A95E1F73F
:1021A000F0E12F0E311CA701BE016F5F7F4FA9A187
:1021B000BAA114968D919C9192DCF8018681978149
:1021C000D70112962D913C91820F931F978386839E
:1021D000BFEF8B1A9B0AAB0ABB0AE4E0CE0ED11C00
:1021E000C2CF1A8E198E1B8E1C8E1D8E1E8E18A3AA
:1021F0000F8FA8014C5F5F4F58A74FA3C8010896E7
:102200009AA789A7EFA1F8A580819181A281B381C6
:102210002B8D3C8D4D8D5E8D281739074A075B0746
:102220000CF40BCF6EE070E08D899E890E94942F94
:10223000AF8DB8A11B969C938E931A97B12CA12CAD
:10224000D12CC12CF12CE12C24E4E989FA892E9FB0
:10225000C0012F9F900D11249C01205B3B4F388FB4
:102260002F8B88248394912C4D895E89C416D506C2
:1022700054F184E4A989BA898A9F80018B9F100D4B
:1022800011240A5B1B4FF80115861486C70133E041
:10229000880F991F3A95E1F70E94AE2FD801519609
:1022A0009C938E935097892B09F4A6CEC701880F73
:1022B000991F0E94AE2FF80197878687892B09F412
:1022C0009BCE80E0A1CED1014D905D906D907D9030
:1022D0001D0177FC91CEEF89F88D008111810A0DE7
:1022E0001B1DD80111969C928E92411451046104D9
:1022F000710429F1C2010E94AE2FF80195838483F5
:10230000892B09F479CEF801538242828481958128
:1023100097838683918780871386128681E090E079
:1023200045284628472811F490E080E0E80EF91E81
:10233000FFEFCF1ADF0A2EE0A20EB11C95CF159643
:102340001C921E921497DFCF2F923F924F925F9272
:102350006F927F928F929F92AF92BF92CF92DF92B5
:10236000EF92FF920F931F93CF93DF93CDB7DEB71A
:102370006A970FB6F894DEBF0FBECDBF9E8B8D8BD4
:1023800049015A0184E4829F7001839FF00C11245B
:1023900097012A5B3B4F6901FB0180819181F90123
:1023A000958B848BD701A45ABB4FFB01349684E0F4
:1023B00001900D928A95E1F7D701A05ABB4FFB011E
:1023C000389684E001900D928A95E1F7D701AC59D7
:1023D000BB4FFB013C9684E001900D928A95E1F79A
:1023E000D701AC58BB4FFB01709684E001900D9271
:1023F0008A95E1F78B010C5E1F4FF90186A597A521
:10240000A0A9B1A918161906DCF5880F991F880F25
:10241000991F0E94AE2FF60193AB82AB892B09F472
:10242000D3C0312C212C412C512C32019601225D3C
:102430003F4F388F2F8BC601C2969A8F898FF496A3
:10244000FC8BEB8BB301A2012FEF421A520A620AF6
:10245000720AEF89F88D80819181A281B38148173A
:1024600059076A077B070CF47BC0F60184A995A97C
:102470000E94AE2FF60197AB86AB892B09F4A4C05E
:10248000F80180819181A281B38124E4289DF0012B
:10249000299DF00D1124EA5BFB4FAC01BD014D7F7E
:1024A00021E030E0452B462B472B11F030E020E0B7
:1024B00033A322A324E4289DF001299DF00D1124CB
:1024C000EA5BFB4F0197A109B10921E030E00297D7
:1024D000A105B10510F030E020E035A324A3D70119
:1024E000A459BB4FF801349684E001900D928A956F
:1024F000E1F784E4889DF001899DF00D1124EA5BE9
:10250000FB4F868D978DA0A1B1A1B7FF58C0B095A4
:10251000A095909581959F4FAF4FBF4F82AF93AFDE
:10252000A4AFB5AF168E178E10A211A280E06A96E6
:102530000FB6F894DEBF0FBECDBFDF91CF911F91D4
:102540000F91FF90EF90DF90CF90BF90AF909F9052
:102550008F907F906F905F904F903F902F90089555
:10256000E98DFA8D808191819C01220D331D3A8B7A
:10257000298B80E1F801DE01119601900D928A9578
:10258000E1F7005F1F4F49895A89BE016F5F7F4F96
:10259000ED89FE8984819581A2DAEB89FC898081AD
:1025A0009181E989FA8922813381820F931FEB8916
:1025B000FC8991838083F4E02F0E311C43CF12AE4F
:1025C00013AE14AE15AEB2CFC501B4011DDA81E071
:1025D000AECFCF92DF92EF92FF92CF93DF93109224
:1025E000CE0424E4269FF001279FF00D1124EA5B1E
:1025F000FB4F15A614A630E020E0D12CC12CDF0142
:102600001A96C1E0D0E0C416D506F4F024E4269F63
:10261000F001279FF00D1124EA5BFB4F13A612A6D1
:1026200011AE10AEDF01DE961D921D921D921C921E
:10263000139782E090E0938B828BDF91CF91FF9094
:10264000EF90DF90CF900895ED91FC911197E20FFC
:10265000F31FE280F3801E141F0454F4E480F5801D
:10266000F782E682F186E08613861286D183C083E4
:10267000EFEFCE1ADE0A225F3F4FC5CF24E4269F3C
:10268000F001279FF00D1124EA5BFB4F138A128A99
:102690004ACB24E4269FF001279FF00D1124EA5B2A
:1026A000FB4F8289938981309105C8F0853091056F
:1026B00018F0059769F008958FEF9FEFDC01828F86
:1026C000938FA48FB58F85E090E0938B828B0895D4
:1026D0008FEF9FEFDC01828F938FA48FB58F0895CA
:1026E00024E4249FD001259FB00D1124AA5BBB4F89
:1026F0002EE0AC01249FC001259F900D11241A9655
:10270000ED91FC91E80FF91F81E08093CE04828562
:10271000938591878087408551852681378181E027
:1027200090E04217530711F090E080E0918380839E
:1027300008952F923F924F925F926F927F928F9265
:102740009F92AF92BF92CF92DF92EF92FF920F9340
:102750001F93CF93DF93CDB7DEB7C055D1090FB626
:10276000F894DEBF0FBECDBF9EAF8DAF4BA75CA769
:102770006DA77EA76801790184E4809FF001819FA5
:10278000F00D1124EA5BFB4F2285338523963FAF82
:102790002EAF239782899389029761F486A597A526
:1027A000A0A9B1A9892B8A2B8B2BC9F584E090E0D5
:1027B000938B828B84E48C9DF0018D9DF00D112410
:1027C000EA5BFB4F828993898230910509F037C219
:1027D00082AD93ADA4ADB5AD22242394312C18164F
:1027E00019061A061B060CF42FC2C05BDF4F0FB68A
:1027F000F894DEBF0FBECDBFDF91CF911F910F9137
:10280000FF90EF90DF90CF90BF90AF909F908F9010
:102810007F906F905F904F903F902F9008958489A4
:1028200095894DAD5EAD8417950721F606A917A9C8
:1028300018AE1FAA1BAA1CAA1DAA1EAA1F01CF01FF
:102840008E9627969FAF8EAF2797DF01D296299657
:10285000BFAFAEAF2997F8962B96FFAFEEAF2B9791
:1028600091012A5D3F4F2D963FAF2EAF2D97A101CD
:102870004E5D5F4F2F965FAF4EAF2F970A976196D1
:102880009FAF8EAF61972796EEADFFAD2797808102
:102890009181A281B3812BA93CA94DA95EA92817DA
:1028A00039074A075B0744F081E090E0D101D996EF
:1028B0009C938E93D8977ECF2996AEADBFAD2997C6
:1028C000ED91FC912FA938ADE20FF31F42815381A6
:1028D0005AAF49AF50815FAF818121968FAF219769
:1028E0002B96AEADBFAD2B978D919C91892B21F18D
:1028F0002D96EEADFFAD2D9780809180A280B380A4
:102900001AAB09AB5FA72196FFAD2197F8AB29ADB4
:102910003AAD369527953695279525963FAF2EAF3C
:1029200025971CAE1BAE2596AEADBFAD2597EBAD82
:10293000FCADEA17FB070CF149AD5AAD6FAD21961E
:102940007FAD2197C8010E94D33089AD9AAD8C7FAD
:10295000080F191F2BA93CA94DA95EA92F5F3F4F56
:102960004F4F5F4F2BAB3CAB4DAB5EAB4FA958AD60
:102970004C5F5F4F58AF4FAB86CF2F96AEADBFAD1C
:102980002F978D919C91892B71F1EFA5F8A940802B
:10299000518062807380A3019201C501B4010E943D
:1029A0007F23181664F0A9A9BAA92D913D914D91E4
:1029B0005C91C501B4010E9407251816BCF1A30162
:1029C0009201C501B4010E947F2387FF0CC0E9A9D1
:1029D000FAA92081318142815381C501B4010E944D
:1029E0007F23882319F16196AEADBFAD61978D91BC
:1029F0009C91892B09F445C0EFA5F8A9408051802E
:102A000062807380A3019201C501B4010E94072571
:102A100018161CF5A9A9BAA92D913D914D915C916B
:102A2000C501B4010E947F2318165CF184E48C9DDB
:102A3000F0018D9DF00D1124EA5BFB4F868D978D83
:102A4000A0A1B1A1892B8A2B8B2B69F183E090E0A7
:102A5000938B828B81E090E02CC0A3019201C50191
:102A6000B4010E947F2381110CC0E9A9FAA9208139
:102A7000318142815381C501B4010E947F2387FDCA
:102A8000D5CF2BAD3CAD2F5F3F4F3CAF2BAF49A90E
:102A90005AA94C5F5F4F5AAB49AB8FA598A90496D2
:102AA00098AB8FA740CF84E090E0938B828B86AD6C
:102AB00097AD93A782A77ECEEBADFCAD80819181CF
:102AC000F401EE0FFF1FEE0FFF1FE80FF91FA081AB
:102AD000B1818C9181110AC0FFEF8F1A9F0AAF0A52
:102AE000BF0A8DA29EA2AFA2B8A68FC18330A1F368
:102AF0000280F381E02D2FA938ADE20FF31F808112
:102B000091819AAB89AB892B39F34F5F5F4F6F4F40
:102B10007F4F49875A876B877C879E01235E3F4F93
:102B2000AE01475D5F4F64E070E0C8010E94970C02
:102B30008111D0C18D819E81AF81B8850496A11D80
:102B4000B11D8D839E83AF83B8874D8D5E8DBE0191
:102B50006B5D7F4F8F8D98A10E94D3308BA19CA17C
:102B6000009761F06D8D7E8DA5E2B0E0AC0FBD1FCA
:102B70006A0F7B1F49A15AA10E94D3301CAA1BAA2D
:102B8000412C512C3201E9A9FAA980819181A281BD
:102B9000B381481659066A067B060CF09DCFE9A959
:102BA000FAA9848195812BA93CA9280F391F38AB3C
:102BB0002FA7D90112966D917C919E01235E3F4F04
:102BC000AE01475D5F4FC8010E94970C811182C121
:102BD000EFA5F8A982819381092E000CAA0BBB0BEB
:102BE0004D815E816F817885840F951FA61FB71F69
:102BF0008D839E83AF83B887608171814D8D5E8D9B
:102C00008F8D98A10E94D3308BA19CA1009761F079
:102C1000AFA5B8A96D917C912D8D3E8D620F731F6C
:102C200049A15AA10E94D330BFEF4B1A5B0A6B0A2D
:102C30007B0AEBA9FCA93496FCABEBABA4CF312CFF
:102C4000212C049709F0D1CD8EE0EDADFEAD8E9F25
:102C500080018F9F100D112423962EAD3FAD239739
:102C6000020F131FD80112964D915C9113974115D5
:102C7000510509F4BACD16968D919C919AA789A712
:102C800080E1FE013196DF011D928A95E9F7C98A3C
:102C9000DA8AEB8AFC8A2114310409F458C084E4EE
:102CA0008C9DF0018D9DF00D1124EA5BFB4FDF013F
:102CB000DE968D909D90AD90BC9082AD93ADA4AD0D
:102CC000B5AD88169906AA06BB0609F040C0F80102
:102CD000848195810084F185E02D349624E0DE0125
:102CE000559601900D922A95E1F72D893E89285F2E
:102CF0003F4F3E8B2D8BD80118966D917C91199783
:102D0000260F371F19963C932E93189718962D91DE
:102D10003C911997480F591F241B350B37FD06C0EE
:102D2000820F931F19969C938E93189784E48C9D21
:102D3000F0018D9DF00D1124EC57FB4FB1E08B1A83
:102D40009108A108B10880829182A282B3829E017B
:102D50002B5E3F4FAE01475D5F4F64E170E0C801FD
:102D60000E94970C8111B6C08CE090E0A0E0B0E02A
:102D70008D839E83AF83B8879E01235E3F4FAE0154
:102D8000475D5F4F64E070E0C8010E94970C8111BD
:102D9000A1C080E190E0A0E0B0E08D839E83AF838E
:102DA000B8874D8D5E8DBE01655D7F4F8F8D98A17B
:102DB0000E94D3308BA19CA1009761F06D8D7E8D18
:102DC000EBE2F0E0EC0FFD1F6E0F7F1F49A15AA14F
:102DD0000E94D3301DA21EA21FA218A62DAD3EAD8B
:102DE000220F331F38AF2FAB24E42C9DC0012D9D43
:102DF000900D11248A5B9B4FAC014C5F5F4F5AAF23
:102E000049AFDC011896BCAFABAF8DA09EA0AFA0C0
:102E1000B8A449855A856B857C85E9ADFAAD80817A
:102E20009181A281B38188169906AA06BB060CF48B
:102E300043CE452B462B472B09F4D7CC8AE190E0B3
:102E4000A0E0B0E089839A83AB83BC832DAD3EAD17
:102E5000C901330FAA0BBB0B8D879E87AF87B88B39
:102E60004D895E89BE016F5F7F4F8F89988D0E946B
:102E7000D3308B8D9C8D009761F06D897E8941E008
:102E800050E04C0F5D1F640F751F498D5A8D0E94D5
:102E9000D33089A59AA5D80117969C938E9316973F
:102EA00011961C921E92232809F49FCC84E48C9DD9
:102EB000F0018D9DF00D1124EC57FB4F8081918125
:102EC000A281B3810196A11DB11D80839183A2834C
:102ED000B3838BCC232809F088CC84E48C9DF0014B
:102EE0008D9DF00D1124EA5BFB4F81E090E095A7EA
:102EF00084A785E090E0938B828B77CCCF92DF9292
:102F0000EF92FF920F931F9324E4269FF001279FD7
:102F1000F00D1124EA5BFB4F22893389211531051D
:102F200009F452C06B017C0121303105B1F482A556
:102F300093A59C012F5F3F4F33A722A7092E000CBA
:102F4000AA0BBB0B028D138D248D358D8017910735
:102F5000A207B307C9F5C7013CDB84E48C9DF001EF
:102F60008D9DF00D1124EA5BFB4F828993890397B5
:102F700059F582A593A59C012F5F3F4F33A722A748
:102F8000092E000CAA0BBB0B468D578D60A171A1B9
:102F900084179507A607B707BCF086AD97AD93A732
:102FA00082A784E090E0938B828B82AD93ADA4AD39
:102FB000B5AD181619061A061B0634F4EE5BFF4F62
:102FC00081E090E0918380831F910F91FF90EF90BB
:102FD000DF90CF90089524E4269FF001279FF00D05
:102FE0001124EA5BFB4F828993890497B1F482A58F
:102FF00093A5019693A782A7092E000CAA0BBB0BE1
:1030000046895789608D718D84179507A607B70784
:1030100021F485E090E0938B828B08952F923F926C
:103020004F925F926F927F928F929F92AF92BF92D8
:10303000CF92DF92EF92FF920F931F93CF93DF9384
:10304000CDB7DEB72E970FB6F894DEBF0FBECDBF5B
:10305000DC0149835A836B837C83290184E4849F48
:10306000F001859FF00D1124EA5BFB4F2288338825
:10307000C1010497029708F0D7C011961C921E92C6
:1030800013961C921E92129715861486912C812CF1
:1030900090E080E08F019F01205F3F4F38872F83B2
:1030A0003F013CE0630E711CBF01625F7F4F7A8776
:1030B00069873A96FC87EB87EF81F885208131811B
:1030C000F30140815181E985FA85A080B1808415A2
:1030D00095050CF446C011965C934E9313963C9361
:1030E0002E9312971596BC92AE921497452B01F52C
:1030F000F5E02F163104E1F41092CE04F801828D30
:10310000938DA48DB58DAE014F5F5F4F64E070E08D
:103110008F3F9F4FAF4FBF4F09F07AC080E290E0E2
:103120000E94BC0769817A818B819C81A201A6DA09
:103130002E960FB6F894DEBF0FBECDBFDF91CF91B4
:103140001F910F91FF90EF90DF90CF90BF90AF90C5
:103150009F908F907F906F905F904F903F902F90B7
:103160000895EB85FC8560817181FB01E80DF91DF7
:10317000FE87ED8760817181672B89F5E084F1849A
:10318000628173817E836D83668177816A01E3E06A
:10319000CC0CDD1CEA95E1F72C0D3D1D440F551FAD
:1031A0004A0D5B1DFA0191838083F30140815181B7
:1031B0004F5F5F4F51834083F901F382E282ED85D7
:1031C000FE8573876287E616F70670F46E197F092D
:1031D000F901718360831582148217821682019629
:1031E000FEE08F0E911C68CFED85FE85C480D580F2
:1031F0004D815E814C0D5D1D4E195F09F9015183B2
:1032000040836C197D0975836483D782C682E7CFBA
:103210008FE190E00E94BC07F80113A612A681E09E
:1032200090E0938B828B84CF1586148611961C9226
:103230001E9213961C921E9212977ACFEF92FF92D3
:103240000F931F93CF93DF937C018B01EA010E94C0
:10325000800881111EC08091B8019091B901049736
:1032600011F5DF91CF911F910F91FF90EF9008958D
:1032700028ED38EB45E050E060E070E0CB010E94C3
:103280001F09AE01B801C7010E942E09C8010E94A2
:10329000F9088091CF049091D004892BE1F68881C0
:1032A000882331F3D8CF83E090E09093B9018093E5
:1032B000B801D7CFCF93DF932091B8013091B901F6
:1032C0002430310541F0EB010E942E09CE01DF913F
:1032D000CF910C94F908DF91CF9108950C94770C5D
:1032E0000C946C0C0C945A0C0C9409090C94000C62
:1032F000089570E060E090E080E00C945808089534
:10330000AF92BF92CF92DF92EF92FF920F931F93F3
:10331000CF93DF9300D0CDB7DEB75C018B0169019D
:103320007A0190E080E0C114D104E104F10469F471
:103330000F900F90DF91CF911F910F91FF90EF9021
:10334000DF90CF90BF90AF9008959C2D8D2DC1142C
:10335000D10421E0E206F10410F09FEF8FEF9E010F
:103360002F5F3F4F492F582FB801C5010E944E22B1
:103370008F3F9807E9F229813A81C21AD30AE108FE
:10338000F108020F131FCFCFAF92BF92CF92DF92FF
:10339000EF92FF920F931F93CF93DF9300D0CDB79F
:1033A000DEB75C018B0169017A0190E080E0C11415
:1033B000D104E104F10469F40F900F90DF91CF91F3
:1033C0001F910F91FF90EF90DF90CF90BF90AF9043
:1033D00008959C2D8D2DC114D10421E0E206F10445
:1033E00010F09FEF8FEF9E012F5F3F4F492F582F17
:1033F000B801C5010E940B228F3F9807E9F229818D
:103400003A81C21AD30AE108F108020F131FCFCF85
:1034100040E052EC61E070E090E080E002C05CD0FF
:10342000FFCF009719F0019729F008958DE195E0FD
:103430000C94E32826E08EE695E00C94C6298BE0F8
:1034400096E00C94C12E1F920F920FB60F9211248A
:103450002F933F934F935F936F937F938F939F939C
:10346000AF93BF93EF93FF938EEE95E89093950003
:10347000809394000E946322FF91EF91BF91AF91DE
:103480009F918F917F916F915F914F913F912F917C
:103490000F900FBE0F901F9018958EEE95E89093A9
:1034A000950080939400A1E7B0E08C918E7F8C937F
:1034B000E0E9F0E080818C7F8083E1E9F0E08081C9
:1034C000877E808380818460808380818C7F8083FD
:1034D0008C9181608C930895E1E7F0E08081908188
:1034E0009E7F90838170089581E00895FF920F93ED
:1034F0001F93CF93DF93DC01FB01620F731F9DE7E6
:1035000080E2F82E8191833081F013E8180F123099
:1035100060F08D93E617F707A9F7CA01B901DF91AB
:10352000CF911F910F91FF9008959C938F010150AF
:103530001109E80188818F2511968C9311971296B5
:103540002F5F3F4F4F4F5F4FE5CF8F929F92AF92CC
:10355000BF92EF92FF920F931F93CF93DF93CDB75C
:10356000DEB72C970FB6F894DEBF0FBECDBF8C012F
:10357000FB018181882309F454C07B018EE7F801A7
:103580008083818383E085878687108A1786128AE5
:10359000118A138A148A158A168A178A22E030E063
:1035A00040E050E0B801C701D2D281113AC021E019
:1035B00030E040E050E0B8016E5F7F4FCE010196F1
:1035C00095DF9B01AC01BE016F5F7F4FC701BFD28A
:1035D000811127C0F7014081F80183819481258101
:1035E000368189879A872B873C87411104C03987A8
:1035F0002A879B878C8724E030E040E050E0BE01C2
:10360000675F7F4FCE01019671DF9B01AC01BE0168
:103610006F5F7F4FC7019BD2812C912C540188236F
:1036200059F12C960FB6F894DEBF0FBECDBFDF91D7
:10363000CF911F910F91FF90EF90BF90AF909F900F
:103640008F900895F80167817085680D791D21E0DC
:1036500030E040E050E0CE01019648DF9B01AC0134
:10366000BE016F5F7F4FC70172D28111DACFFFEFCA
:103670008F1A9F0AAF0ABF0AF80183819481A5813E
:10368000B68188169906AA06BB06E0F2B801635F08
:103690007F4F22E030E040E050E0C70158D2C1CF78
:1036A0002F923F924F925F926F927F928F929F9252
:1036B000AF92BF92CF92DF92EF92FF920F931F9340
:1036C000CF93DF9300D000D000D01F92CDB7DEB7EC
:1036D0001D8219821A821B821C82DB0111962C9199
:1036E000222309F447C06B017C018EE7F701808338
:1036F000818383E085878687108A1786128A118ADC
:10370000138A148A158A168A178A3396FF83EE83E2
:1037100085E0482E512C5701FDE0AF0EB11C47014A
:103720002FEF821A920A66246394712C170182E0AB
:10373000280E311C8E010F5F1F4F21E030E040E06A
:1037400050E0BE016B5F7F4FC60154D28111B3C000
:1037500049815A816B817C81413051056105710538
:1037600059F0D70150961C921E921F9752961C92A8
:103770001E92519781E09FC0F70127853089225022
:1037800031092330310540F49D812789222349F1F5
:10379000178AF0E29F279D83F70127853089223021
:1037A000310509F4AAC00CF041C02115310509F416
:1037B0009BC02130310509F0BDCF8D818E3709F0D6
:1037C0005DC10188F289E02D8083F701138A148A94
:1037D000158A168A82E090E0908B8787328A218A48
:1037E000A9CF9D3749F09E3761F09330A9F6128A30
:1037F000118A108A1786D0CFE1E0D7015796EC9353
:1038000099CFD701928A818A908353968D919D9109
:103810000D90BC91A02D0196A11DB11DF701838BC8
:10382000948BA58BB68B708A678684CF2430310544
:1038300009F4EAC00CF496C02530310509F07ACFBE
:10384000438954896589768942305105610571053E
:1038500008F014C19D81933009F010C10188F289EC
:10386000E02D9F012F5F3F4FD70152963C932E933F
:103870005197908353964D915D916D917C915697A0
:103880004F5F5F4F6F4F7F4FF701438B548B658BBB
:10389000768B423051056105710509F04BCF26E06A
:1038A00030E0308B2787128A118A53961D921D9221
:1038B0001D921C92569727960FB6F894DEBF0FBE46
:1038C000CDBFDF91CF911F910F91FF90EF90DF90CF
:1038D000CF90BF90AF909F908F907F906F905F90B0
:1038E0004F903F902F9008958D818E3709F022CF11
:1038F000D701928A818A808388CF83899489A58918
:10390000B689892B8A2B8B2B09F0B8C00188F289E4
:10391000E02DCF010196D70152969C938E9351973B
:103920008D81808353968D919D910D90BC91A02D9A
:103930000196A11DB11DF701838B948BA58BB68BCE
:103940000197A105B10509F0F5CE83E090E0908BD9
:103950008787AE81BF81B28BA18B138A148A158AA7
:10396000168AE8CE83899489A589B6890497A1052A
:10397000B10508F083C00188F289E02DCF010196DE
:10398000D70152969C938E9351978D818083539645
:103990008D919D910D90BC91A02D0196A11DB11D01
:1039A000F701838B948BA58BB68B0497A105B1058A
:1039B00009F0C0CED6018C91538144813581268196
:1039C000811118C0C901DA01F70183839483A583AB
:1039D000B683138A148A158A168A892B8A2B8B2B15
:1039E00071F084E090E0908B878787819085928B3F
:1039F000818BA0CE852F942FA32FB22FE5CF508A95
:103A00004786B28AA18A96CE438954896589768988
:103A100083819481A581B681481759076A077B077E
:103A200068F50188F289E02DCF010196D701529601
:103A30009C938E9351978D81808353968D919D9108
:103A40000D90BC91A02D0196A11DB11DF701838B96
:103A5000948BA58BB68B43815481658176818417C5
:103A60009507A607B70709F065CE508A4786B28A40
:103A7000A18A138A148A158A168A5CCEF701128AE3
:103A8000118A108A178676CEE1EDF4E081E080831A
:103A90001182CF010895CF92DF92EF92FF920F93A0
:103AA0001F93CF93DF93FC012181222351F081E00A
:103AB000DF91CF911F910F91FF90EF90DF90CF900A
:103AC00008956A017B01EC016CE070E081E090E018
:103AD0000E94942F8C019093D4048093D304009778
:103AE00031F3FC011286138681E08983B601C70198
:103AF0007ED4F80191838083E091D304F091D404C3
:103B000080819181019611F41982D1CF80E0D0CFCC
:103B1000CF93DF93FC01218181E02223A9F0118260
:103B2000E091D304F091D40480819181A6D4EC017A
:103B30008091D3049091D404009711F00E944A30F0
:103B400081E0219609F080E0DF91CF910895FC019A
:103B50008181882369F0E091D304F091D4048081BD
:103B60009181CEDB21E0019609F020E0822F0895BB
:103B700021E0FCCF0F931F93CF93DF9300D0CDB7FD
:103B8000DEB71A821982DC0111968C91811108C06E
:103B900081E00F900F90DF91CF911F910F910895C9
:103BA000E091D304F091D4048285882329F081E048
:103BB000FB01808380E0EDCF8B01DB011C92BF0114
:103BC0006E5F7F4F9E012F5F3F4F48E050E0808146
:103BD000918121D40196E1F289819A81009751F374
:103BE00091E0F8019083E091D304F091D4048287AE
:103BF0001386E0CF8F929F92AF92BF92CF92DF92C7
:103C0000EF92FF920F931F93CF93DF936B014901C4
:103C10005A01F8011082118212821382FC01818103
:103C200081110EC081E0DF91CF911F910F91FF9024
:103C3000EF90DF90CF90BF90AF909F908F900895BE
:103C4000E090D304F090D404F701C285CC2309F1AD
:103C5000D0E02C173D0708F4E901F701638570E017
:103C60006E5F7F4F6E0D7F1DAE01C6010E94D33087
:103C7000F70182858C1BF701828783858C0FF70102
:103C80008387CC0EDD1EA50194012C1B3D0B410941
:103C90005109B601F7018081918176DB019611F21D
:103CA000F80180829182A282B38280E0BCCFDC01E5
:103CB0002D913C9111972115310529F4FB0180814B
:103CC0009181009779F0F901E85BFF4F40815181C4
:103CD0004D935C93452B19F4DB011D921C921182CC
:103CE0001082C90108952091DC043091DD04809197
:103CF000DE049091DF04892B19F481E0232B09F075
:103D000080E008952091D8043091D9048091DA049C
:103D10009091DB04892B19F481E0232B09F080E0DA
:103D20000895CF93E0DF882389F1ECDF8823B1F198
:103D300080910005909101050E944A30C8E1E9EFA9
:103D4000F4E0DF018C2F1D928A95E9F78091E80459
:103D50009091E9040E944A30E1EEF4E0DF011D9207
:103D6000CA95E9F71092D9041092D8041092DB0496
:103D70001092DA041092DD041092DC041092DF0439
:103D80001092DE041092E004CF9108956CED74E07F
:103D90008EED94E08CDF0E944A30C4CF68ED74E071
:103DA0008AED94E084DF0E944A30BFCFCF93DF9347
:103DB000C5E0D0E06AE470E081E090E00E94942FDA
:103DC000009751F12091DC043091DD044091DE0434
:103DD0005091DF04FC01E85BFF4F452B99F421155E
:103DE000310581F49093DD048093DC049093DF042B
:103DF0008093DE04118210822197E1F680E0DF914A
:103E0000CF910895285B3F4FD9018D939C93909358
:103E1000DD048093DC04EECF81E0F1CF8F929F929E
:103E2000AF92BF92CF92DF92EF92FF920F931F93C8
:103E3000CF93DF9300D01F92CDB7DEB76C014B015B
:103E400058017A014331510518F082E1E82EF12C36
:103E5000F901F182E08210E000E013C01B82BE0194
:103E60006D5F7F4FC60186DE811131C08B8181116C
:103E70002AC039DF882379F3083C1105C4F50F5FA8
:103E80001F4F8091E004882321F0F2E0AF16B104C7
:103E900029F7C701B0E0A0E08093E4049093E50423
:103EA000A093E604B093E704A092E304A701B40151
:103EB0008091E8049091E9040E94D330B60181EE2C
:103EC00094E043DB04C0C60124D0882391F20F9014
:103ED0000F900F90DF91CF911F910F91FF90EF9076
:103EE000DF90CF90BF90AF909F908F9008955EDF4E
:103EF0008111EDCF02E010E09E012F5F3F4F50E0B7
:103F000040E070E060E0C60189DF882309F4A3CFB8
:103F1000DECF7F928F929F92AF92BF92CF92DF922D
:103F2000EF92FF920F931F93CF93DF9300D0CDB703
:103F3000DEB77C01BC0189EF94E0B2DB782E811101
:103F400006C08091FB04823099F41092E004872D22
:103F50000F900F90DF91CF911F910F91FF90EF90F5
:103F6000DF90CF90BF90AF909F908F907F900895FB
:103F70008090FC049090FD04A090FE04B090FF049B
:103F8000C0900005D09001056CED74E08EED94E0DA
:103F90008EDE8C01A401B6010E94D330F801E05CF2
:103FA000FF4F092C000CAA08BB0880829182A282D4
:103FB000B382349610821182128213828091D804C7
:103FC0009091D9042091DA043091DB043496232BAC
:103FD000E1F40097D1F41093D9040093D80410931E
:103FE000DB040093DA04118210827DDE8111AFCFF1
:103FF00002E010E09E012F5F3F4F50E040E070E094
:1040000060E0C7010BDF782EA2CF885B9F4FDC01F9
:104010000D931C931093D9040093D804E4CF80E04F
:10402000089521E0FC0181819281892B09F420E02F
:10403000FB01208380E008951092E00408950F931F
:104040001F93CF93DF93FC010181128101151105AC
:1040500031F0EC0166DEC8015BDD1A821982DF9166
:10406000CF911F910F9108954F925F926F927F921F
:10407000AF92BF92CF92DF92EF92FF920F931F9376
:10408000CF93DF938C016B015A01C42FDB2DEE24FB
:10409000E394F12CEC14FD04DCF081E0F801808362
:1040A000F3DCEC01892B29F5F8011282118281E001
:1040B00093E0DF91CF911F910F91FF90EF90DF90F0
:1040C000CF90BF90AF907F906F905F904F9008958A
:1040D000FFEFEF1AFF0A8A819B81009741F069E2A6
:1040E00073E00E94E330892B11F41B821A8222961E
:1040F000D1CF17DE80E490E00E94AE2F9093E904C8
:104100008093E804892B81F280E4482E512C612CA5
:10411000712C4092EA045092EB046092EC0470928D
:10412000ED0480E490E00E94AE2F9093010580930F
:104130000005892B09F4B8CF40920205509203057F
:10414000609204057092050531DE8111ADCFA501A5
:10415000B601CE01A0DC8111A7CFF801D283C183C3
:1041600090E080E0A6CFFC018081089585ED94E089
:10417000089508956F927F928F929F92AF92BF920F
:10418000CF92DF92EF92FF920F931F93CF93DF9323
:1041900000D0CDB7DEB76C015B018A014901B2DD09
:1041A0008823C1F0D60111966D907C901982BE01D2
:1041B0006F5F7F4FC301DEDCF82E811185C08981DE
:1041C000882309F493C0C301A4DE81117CC09ADD69
:1041D00081118CC0D6011196CD90DC906091DA04EB
:1041E0007091DB046115710509F484C07B01B4E4AE
:1041F000EB0EF11CF701208131813B01F0E46F0EE1
:10420000711CD3018D919C91821B930BA816B9064A
:104210000CF477C0F80191838083620F731FF8015B
:1042200040815181C4010E94D330D8018D919C916D
:10423000092E000CAA0BBB0BF70140815181628152
:104240007381840F951FA61FB71F80839183A2835C
:10425000B383F30140815181628173818417950793
:10426000A607B70771F53FDD182FD3011D921D92E8
:104270001D921C921397F7011082118212821382F1
:1042800068ED74E08AED94E012DD2091DC04309159
:10429000DD044091DE045091DF04FC01E85BFF4F38
:1042A000452B99F52115310581F59093DD04809317
:1042B000DC049093DF048093DE04118210821111DC
:1042C0002EC0F12C01C0F82E8F2D0F900F90DF9192
:1042D000CF911F910F91FF90EF90DF90CF90BF9003
:1042E000AF909F908F907F906F900895F80111820A
:1042F0001082EACFC6010DDEF82E882309F46ECFB6
:10430000E3CFD801AD92BC9288CF285B3F4FD90153
:104310008D939C939093DD048093DC04CECF02E0D8
:1043200010E09E012F5F3F4F50E040E070E060E002
:10433000C60174DDF82E8111C7CFC3CF5F926F9293
:104340007F928F929F92AF92BF92CF92DF92EF9225
:10435000FF920F931F93CF93DF9300D0CDB7DEB7BB
:104360006B013A015901FC01818092801A82198205
:10437000F12CE12C55245394EC14FD04B4F0F50118
:10438000D182C08280E00F900F90DF91CF911F917A
:104390000F91FF90EF90DF90CF90BF90AF909F90E4
:1043A0008F907F906F905F90089501E010E09E01E4
:1043B0002F5F3F4FA6014E195F09B3016E0D7F1DA0
:1043C000C4012CDD8111DFCF89819A81E80EF91EAD
:1043D0005092E004D1CF0895CF93DF93EC0189810F
:1043E0009A8196DB1A821982DF91CF9108951CD4AD
:1043F00040E052EC61E070E08DE195E0E4D68DE1C3
:1044000095E014D6892B21F08DE195E01DD6F7CFEC
:1044100090E080E00895CF92DF92EF92FF920F93A9
:104420001F93CF93DF936B017A01E9011982188200
:104430008DE195E0FBD5892BA9F0860188819981D2
:104440008E159F0578F48DE195E0FED58F3F980796
:10445000A9F3F80181938F0188819981019699834D
:104460008883ECCF90E080E0DF91CF911F910F9196
:10447000FF90EF90DF90CF90089568EE73E080E0BA
:1044800090E09BD38DE195E0D1D5892B21F08DE192
:1044900095E0DAD5F7CF90E080E008950F931F9371
:1044A000CF93DF93EA018901F8948DE195E0D8D5A7
:1044B0007894F801D183C08390E080E0DF91CF91C0
:1044C0001F910F9108958091110591E0980F90939D
:1044D0001105882349F021E030E030931305209343
:1044E000120580931105089578940E943603F8947C
:1044F000809111058150809311050C947019DF9201
:10450000EF92FF920F931F93CF93DF931F92CDB73C
:10451000DEB710925C0610925B0686D30E941F1ACB
:104520000E94081A0091F5011091F601F80111821C
:10453000108270E060E090E080E00E9479190E94B3
:10454000F304F8947894C8018C559F4F0E94781911
:1045500082E090E00E9474191982AE014F5F5F4FB4
:1045600062E070E0F801828193810E941E198981C6
:10457000882329F081E0F801E655FF4F80830E94EF
:104580007F19F8940E944D1AF80180819181892B3E
:1045900029F481E0E655FF4F9081911180E08093EE
:1045A0005B06789478947801FAEAEF0EF11CDD242A
:1045B000D39480915B06811114C00E94E70582E0CC
:1045C00090E00E9476190E940F1AF89490E080E023
:1045D0000F90DF91CF911F910F91FF90EF90DF909F
:1045E00008951982AE014F5F5F4F62E070E0F801FD
:1045F000828193810E945A198981882311F0F701E1
:10460000D082F80180819181892B91F481E0F701BA
:104610009081911101C080E080935C0690915C06CE
:1046200081E0911180E080935B060E94741AC1CFF3
:1046300081E0F2CF5058BB27AA270ED097C188D16E
:1046400030F08DD120F031F49F3F11F41EF47DC184
:104650000EF4E095E7FB4AC1E92F99D180F3BA1730
:10466000620773078407950718F071F49EF5C8C1B7
:104670000EF4E0950B2EBA2FA02D0B01B90190017D
:104680000C01CA01A0011124FF27591B99F0593FC1
:1046900050F4503E68F11A16F040A22F232F342F09
:1046A0004427585FF3CF469537952795A795F04057
:1046B0005395C9F77EF41F16BA0B620B730B840B6C
:1046C000BAF09150A1F0FF0FBB1F661F771F881F24
:1046D000C2F70EC0BA0F621F731F841F48F487957C
:1046E00077956795B795F7959E3F08F0B3CF93956B
:1046F000880F08F09927EE0F979587950895D2D0E7
:1047000008F481E0089504D06894B1117AC1089545
:1047100046D188F09F5790F0B92F9927B751A0F054
:10472000D1F0660F771F881F991F1AF0BA95C9F745
:1047300012C0B13081F064D1B1E0089561C1672F3A
:10474000782F8827B85F39F0B93FCCF386957795F5
:104750006795B395D9F73EF49095809570956195DE
:104760007F4F8F4F9F4F0895E89409C097FB3EF409
:1047700090958095709561957F4F8F4F9F4F9923AE
:10478000A9F0F92F96E9BB279395F695879577952C
:104790006795B795F111F8CFFAF4BB0F11F460FFEC
:1047A0001BC06F5F7F4F8F4F9F4F16C0882311F044
:1047B00096E911C0772321F09EE8872F762F05C058
:1047C000662371F096E8862F70E060E02AF09A95F3
:1047D000660F771F881FDAF7880F9695879597F9E8
:1047E0000895F7D080F09F3740F491110EF009C181
:1047F00060E070E080E89FEB089526F41B16611DD1
:10480000711D811D79C093C0A3D018F011F0A7D0FD
:1048100038F49BC0F6C0E92FBAD0B0F35523C9F3E2
:10482000E7FB6217730784079507A8F199F3E92F4F
:10483000FF2788232AF03197660F771F881FDAF742
:10484000952F5527442332F091505040220F331FAB
:10485000441FD2F7BB27E91BF50B621B730B840BBC
:10486000B109C1F222F4620F731F841FB11D319789
:104870002AF0660F771F881FBB1FEFCF9150504063
:104880005AF041F0882332F0660F771F881F91504D
:104890005040C1F793954BC08695779567959F5F7C
:1048A000D9F7F8CF990F0008550FAA0BE0E8FEEFF3
:1048B00016161706E807F907C0F012161306E407E4
:1048C000F50798F0621B730B840B950B39F40A26DD
:1048D00061F0232B242B252B21F408950A2609F4BB
:1048E000A140A6958FEF811D811D089597F99F67BF
:1048F00080E870E060E00895882371F4772321F068
:104900009850872B762F07C0662311F499270DC086
:104910009051862B70E060E02AF09A95660F771F21
:10492000881FDAF7880F9695879597F908959F3F26
:1049300031F0915020F4879577956795B795880F5A
:10494000911D9695879597F908959FEF80EC0895AE
:1049500000240A941616170618060906089500245E
:104960000A9412161306140605060895092E0394D8
:10497000000C11F4882352F0BB0F40F4BF2B11F44C
:1049800060FF04C06F5F7F4F8F4F9F4F089557FDAB
:104990009058440F551F59F05F3F71F04795880FAD
:1049A00097FB991F61F09F3F79F087950895121644
:1049B00013061406551FF2CF4695F1DF08C01616F0
:1049C00017061806991FF1CF8695710561050894A1
:1049D0000895E5DFA0F0BEE7B91788F4BB279F383C
:1049E00060F41616B11D672F782F8827985FF7CFD0
:1049F000869577956795B11D93959639C8F3089577
:104A0000E894BB2766277727CB0197F908954ADFFB
:104A100008F48FEF08950BD0A9CF9ADF28F09FDF1D
:104A200018F0952309F062CF90CF1124EACFAFDFC1
:104A3000A0F3959FD1F3950F50E0551F629FF001B1
:104A4000729FBB27F00DB11D639FAA27F00DB11D0A
:104A5000AA1F649F6627B00DA11D661F829F222793
:104A6000B00DA11D621F739FB00DA11D621F839F1A
:104A7000A00D611D221F749F3327A00D611D231FF0
:104A8000849F600D211D822F762F6A2F11249F573E
:104A900050408AF0E1F088234AF0EE0FFF1FBB1F61
:104AA000661F771F881F91505040A9F79E3F510500
:104AB00070F01CCFA6CF5F3FECF3983EDCF38695F9
:104AC00077956795B795F795E7959F5FC1F7FE2BAB
:104AD000880F911D9695879597F908951F920F92CB
:104AE0000FB60F9211242F933F938F939F93AF9301
:104AF000BF938091150590911605A0911705B0916F
:104B000018053091140523E0230F2D3758F5019631
:104B1000A11DB11D209314058093150590931605D2
:104B2000A0931705B09318058091190590911A0567
:104B3000A0911B05B0911C050196A11DB11D80938C
:104B4000190590931A05A0931B05B0931C05BF91FE
:104B5000AF919F918F913F912F910F900FBE0F902A
:104B60001F90189526E8230F0296A11DB11DD2CFE4
:104B70003FB7F8948091190590911A05A0911B05F3
:104B8000B0911C0526B5A89B05C02F3F19F00196D2
:104B9000A11DB11D3FBFBA2FA92F982F8827BC0197
:104BA000CD01620F711D811D911D42E0660F771FBF
:104BB000881F991F4A95D1F708958F929F92AF92BF
:104BC000BF92CF92DF92EF92FF926B017C01D0DF18
:104BD0004B015C01C114D104E104F104E1F00E9435
:104BE000D32EC6DF681979098A099B09683E73408C
:104BF0008105910578F321E0C21AD108E108F10896
:104C000088EE880E83E0981EA11CB11CC114D1044B
:104C1000E104F10431F7FF90EF90DF90CF90BF9067
:104C2000AF909F908F900895789484B5826084BDF2
:104C300084B5816084BD85B5826085BD85B58160A0
:104C400085BDEEE6F0E0808181608083E1E8F0E000
:104C50001082808182608083808181608083E0E82F
:104C6000F0E0808181608083E1E9F0E08081826012
:104C70008083808181608083E0E9F0E080818160D1
:104C80008083E1ECF0E080818460808380818260B9
:104C90008083808181608083E3ECF0E080818160AB
:104CA0008083E0ECF0E0808182608083E2ECF0E0E1
:104CB000808181608083EAE7F0E080818460808386
:104CC0008081826080838081816080838081806830
:104CD00080830895823108F08251E82FF0E0E45596
:104CE000FF4FE49190917B008E2F880F880F807288
:104CF0009F7D892B80937B008091BA0120E4829F65
:104D0000C0011124E770E82BE0937C0080917A00C9
:104D1000806480937A0080917A0086FDFCCF809138
:104D200078009091790008951F93CF93DF93182F07
:104D3000EB0161E0E6D0209731F460E0812FDF9154
:104D4000CF911F911AC1CF3FD10511F461E0F6CF89
:104D5000E12FF0E0E854FF4FE491E150EF3008F02C
:104D60007FC0F0E0EA54F94D0C948E2FC526CD2675
:104D7000D226DC26E626302730273027F026FA26F2
:104D800004270E271B273027232784B5806884BD7E
:104D9000C7BDDF91CF911F91089584B5806284BD16
:104DA000C8BDF7CF80918000806880938000D09349
:104DB0008900C0938800EDCF80918000806280934D
:104DC0008000D0938B00C0938A00E3CF8091800055
:104DD000886080938000D0938D00C0938C00D9CFE1
:104DE00080919000806880939000D0939900C09348
:104DF0009800CFCF80919000806280939000D093F4
:104E00009B00C0939A00C5CF8091900088608093EA
:104E10009000D0939D00C0939C00BBCF8091C000B8
:104E200080688093C0008091C0008F7B8093C00019
:104E3000C093CF00AECF8091C00080628093C0004D
:104E4000C093D000A6CF8091C20088608093C2003A
:104E50008091C2008B7F8093C200C093D20099CF13
:104E6000C038D1050CF072CF68CF81508F3008F078
:104E700047C0E82FF0E0E15CF84D0C948E2F5C27E2
:104E800060274E27542758278027802780276327AD
:104E900069276D277127772780277B2780918000DE
:104EA0008F77809380000895809180008F7DF9CF67
:104EB00080918000877FF5CF84B58F7784BD08957A
:104EC00084B58F7DFBCF809190008F778093900089
:104ED0000895809190008F7DF9CF80919000877F19
:104EE000F5CF8091C0008F778093C00008958091A6
:104EF000C0008F7DF9CF8091C200877F8093C20070
:104F00000895CF93DF9390E0FC01E952FF4F249185
:104F10008A509F4FFC0184918823C9F090E0880F4C
:104F2000991FFC01ED5DFE4FA591B491FC01EB5E74
:104F3000FE4FC591D49161110DC09FB7F8948C912B
:104F4000209582238C938881282328839FBFDF911B
:104F5000CF910895623051F49FB7F8943C91822F1D
:104F6000809583238C93E8812E2BEFCF8FB7F89415
:104F7000EC912E2B2C938FBFEACF1F93CF93DF930F
:104F8000282F30E0F901E854FF4F8491F901E952EC
:104F9000FF4FD491F901EA50FF4FC491CC23A1F007
:104FA000162F811162DFEC2FF0E0EE0FFF1FEB5E9A
:104FB000FE4FA591B4918FB7F894EC91111108C0F0
:104FC000D095DE23DC938FBFDF91CF911F910895A1
:104FD000DE2BF8CFCF93DF931F92CDB7DEB7698377
:104FE000DC01ED91FC910280F381E02D41E050E085
:104FF000BE016F5F7F4F09950F90DF91CF910895AC
:10500000CF93DF93EC018C859D8597FF04C082E0F0
:10501000C4D39D878C878C859D85DF91CF91089522
:1050200083E0D1D390E0089583E024C6FC01848519
:10503000958597FD05C082E061D390E001960895C3
:1050400082E05CD390E00895FC018485958597FD0E
:1050500005C02FEF3FEF35872487089582E09DC379
:10506000CF93DF93EC018091C601882329F083E080
:10507000C3D31816190634F081E090E09B838A832D
:1050800080E090E0DF91CF910895EEEFFFE725916A
:10509000349181E02B3F3C4D09F080E00895FC0104
:1050A00090819E5F908342E450E061E371E080E88C
:1050B00052C4FC0181819081913A59F4813209F006
:1050C00080C047E050E06FEB71E080E044D481E0C5
:1050D0000895913209F075C0833269F48281938119
:1050E000B0E0A0E08093BB019093BC01A093BD0110
:1050F000B093BE01ECCF803231F467E070E08FEB0B
:1051000091E04ED4E4CF823211F782818093C601C0
:10511000BCDFE0E0F8E0882311F0EEEFFAE08091E8
:10512000BF019091C001A091C101B091C201803B2B
:105130009440A105B105D9F48091C60180FD17C046
:10514000EE3F8AE0F80771F587E797E79183808360
:105150008091600080936D0588E19BE00FB6F89424
:10516000A895809360000FBE90936000B0CF8081BF
:1051700091818737974709F0AACFA8958091600061
:1051800088618093600080916D0580936000EE3FA0
:105190008AE0F80789F08091FE0A9091FF0A9183D6
:1051A000808395CF808191818737980769F29093AA
:1051B000FF0A8093FE0AC8CF1092FF0A1092FE0ADF
:1051C00086CF80E008952FEF3FEFFC0135872487DD
:1051D0000895EDE1F5E01382128288EE93E0A0E0FD
:1051E000B0E084839583A683B78380E393E09183C3
:1051F00080838FEF9FEF958784870895FC01918DC1
:10520000228D892F90E0805C9F4F821B91098F73C4
:1052100099270895FC01918D828D981731F0828D28
:10522000E80FF11D858D90E008958FEF9FEF0895B1
:10523000FC01918D828D981761F0A28DAE0FBF2F6A
:10524000B11D5D968C91928D9F5F9F73928F90E0C0
:1052500008958FEF9FEF0895FC01538D448D252F06
:1052600030E0842F90E0821B930B541710F0CF9600
:10527000089501970895FC01A48DA80FB92FB11DC1
:10528000A35ABF4F2C91848D90E001968F7399277C
:10529000848FA689B7892C93A089B1898C91827457
:1052A0008C93938D848D981306C00288F389E02D2A
:1052B00080818F7D80830895CF93DF93EC01888D6B
:1052C0008823B1F0AA89BB89E889F9898C9185FD89
:1052D00003C0808186FD0CC00FB607FCF7CF8C9110
:1052E00085FFF2CF808185FFEDCFCE01C4DFEACF0D
:1052F000DF91CF910895EF92FF920F931F93CF9379
:10530000DF93EC0181E0888F9B8D8C8D981319C001
:10531000E889F989808185FF14C09FB7F894EE89E8
:10532000FF896083E889F9898081827480839FBFC7
:1053300081E090E0DF91CF911F910F91FF90EF906E
:105340000895F62E0B8D10E00F5F1F4F0F7311277E
:10535000E02E8C8D8E110BC00FB607FCFACFE889BA
:10536000F989808185FFF5CFCE0185DFF2CFEB8D06
:10537000EC0FFD2FF11DE35AFF4FF0829FB7F89419
:105380000B8FEA89FB8980818062D0CFCF92DF9238
:10539000EF92FF921F93CF93DF93EC016A017B01A1
:1053A000122FE889F98982E08083C11481EED80642
:1053B000E104F10499F060E079E08DE390E0A70169
:1053C00096018AD5215031094109510956954795D1
:1053D00037952795211580E1380790F0E889F989FC
:1053E000108260E874E88EE190E0A701960174D520
:1053F000215031094109510956954795379527950F
:10540000EC85FD853083EE85FF852083188EEC8941
:10541000FD891083EA89FB89808180618083EA8924
:10542000FB89808188608083EA89FB89808180682C
:105430008083EA89FB8980818F7D8083DF91CF9192
:105440001F91FF90EF90DF90CF9008951F920F92E1
:105450000FB60F9211242F938F939F93EF93FF9387
:10546000E0917E05F0917F058081E0918405F091C7
:10547000850582FD1BC09081809187058F5F8F73AA
:1054800020918805821741F0E0918705F0E0E2590C
:10549000FA4F958F80938705FF91EF919F918F91A0
:1054A0002F910F900FBE0F901F9018958081F4CF11
:1054B0001F920F920FB60F9211242F933F934F9389
:1054C0005F936F937F938F939F93AF93BF93EF936C
:1054D000FF938EE695E0CFDEFF91EF91BF91AF9104
:1054E0009F918F917F916F915F914F913F912F91FC
:1054F0000F900FBE0F901F901895EEE6F5E0138207
:10550000128288EE93E0A0E0B0E084839583A683C6
:10551000B78382E493E0918380838DEC90E095875C
:1055200084878CEC90E09787868788EC90E0918B5D
:10553000808B89EC90E0938B828B8AEC90E0958B4A
:10554000848B8EEC90E0978B868B118E128E138E4F
:10555000148E0895AF92BF92CF92DF92EF92FF9296
:105560000F931F93CF93DF936C017B018B01040F8B
:10557000151FEB015E01AE18BF08C017D10759F027
:105580006991D601ED91FC910190F081E02DC60169
:105590000995892B79F7C501DF91CF911F910F9163
:1055A000FF90EF90DF90CF90BF90AF900895615043
:1055B00030F02091F100FC0120830196F8CF28986B
:1055C00084E680931306089540910E0650910F06CD
:1055D00020910C0630910D0642175307B4F49091B8
:1055E000E8009570E1F39091E80092FD19C0809376
:1055F000F10080910E0690910F0601968F73992706
:10560000892B19F48EEF8093E80080910E0690911B
:105610000F06019690930F0680930E0681E0089581
:1056200080E00895EF92FF920F931F93CF93DF9343
:10563000F82E192FE62E042F81E0860F880FC4DF85
:1056400083E0C2DFCF2DD12FEC0EFD2EF11CCE1545
:10565000DF05A9F007FF11C0FE018491B5DF182F07
:1056600080E0B2DF812321968111F1CFDF91CF91CC
:105670001F910F91FF90EF9008958881EFCF81E007
:10568000F5CF8091D70081608093D70080EA809326
:10569000D80089B5806189BD89B5826089BD09B4AA
:1056A00000FEFDCF61E070E080E090E086DA80915E
:1056B000D8008F7C80618093D8008091E000807F4B
:1056C0008093E0000895CF93DF931F92CDB7DEB7AC
:1056D0001982CE010196E3DCEBD3BE016F5F7F4FF1
:1056E00063D389810F90DF91CF9108952FB7FC018B
:1056F0002083F89467706093E9000895CF93DF9357
:105700001F92CDB7DEB7682FCE010196EFDF8091F3
:10571000F20099819FBF0F90DF91CF910895EF9292
:10572000FF920F931F93CF93DF931F92CDB7DEB7F6
:1057300090911206992371F157FD2CC08A017B01CB
:10574000682FCE010196D2DF8091F20090E0081719
:1057500019070CF4C801282FF70144E6215038F04E
:105760002898409313063091F1003193F7CF0097BA
:1057700039F02091F200211103C02BE62093E800BC
:1057800029812FBF0F90DF91CF911F910F91FF9033
:10579000EF9008958FEF9FEFF5CFCF93DF931F9298
:1057A000CDB7DEB741E050E0BE016F5F7F4FB7DF9E
:1057B000019731F4898190E00F90DF91CF910895A6
:1057C0008FEF9FEFF9CFCF93DF931F92CDB7DEB767
:1057D000682FCE0101968ADF9091E800892F8072B0
:1057E00095FF04C09091F20080E4891B99819FBFCE
:1057F0000F90DF91CF9108955F926F927F928F9279
:105800009F92AF92BF92CF92DF92EF92FF920F934F
:105810001F93CF93DF931F92CDB7DEB7982E6B0106
:10582000B42E052F80911206811113C08FEF9FEFC8
:105830000F90DF91CF911F910F91FF90EF90DF902C
:10584000CF90BF90AF909F908F907F906F905F9020
:1058500008958091100680FF05C08091E00082606D
:105860008093E000EB2CF02EA12C8AEF882E892D5E
:105870008072682E892D8074582E9AE3792EE11457
:10588000F10419F4AA2009F454C0892D9CDF182FC3
:10589000811109C08A94882049F261E070E080E0BB
:1058A00090E08BD9ECCF8E151F0411F00CF01E2D5B
:1058B000692DCE0101961ADF8091E80085FD03C0B5
:1058C00089818FBFDCCF812F90E0E81AF90A66202A
:1058D00029F01150A0F01092F100FBCFF60197FCD7
:1058E0000AC0115050F021912093F100FACF249179
:1058F0002093F10031961150D0F7C80ED91EAA207E
:1059000021F07092E800A12CDBCF8091E80085FDAA
:1059100008C07092E800AA24A394E114F10481F273
:10592000F2CFE114F10461F6552051F27092E800D3
:10593000C7CF5D9884E6809314068B2D902F78CF87
:105940001092E90010920F0610920E0690930D0629
:1059500080930C060895DF92EF92FF920F931F93AE
:10596000CF93DF93D82E8A01EB017B01E40EF51E65
:10597000CE15DF0551F0D7FE11C0FE01849124DE63
:1059800021968111F5CF0FEF1FEFC801DF91CF9165
:105990001F910F91FF90EF90DF9008958881EFCFD6
:1059A000AF92BF92DF92EF92FF920F931F93CF932C
:1059B000DF935C018B01EB019BEFD92E2097B9F0AF
:1059C0007E01C134D1051CF080E4E82EF12C8091D9
:1059D000E80082FFFCCFC8018C1B9D0B6E2D8A0D49
:1059E0009B1DE5DDD092E800CE19DF09E7CFC801A5
:1059F000DF91CF911F910F91FF90EF90DF90BF90BB
:105A0000AF9008951F920F920FB60F921124EF924C
:105A1000FF920F931F932F933F934F935F936F9337
:105A20007F938F939F93AF93BF93EF93FF93CF9306
:105A3000DF93CDB7DEB76C97DEBFCDBF1092E90024
:105A40008091E80083FF24C068E0CE014596AFDD79
:105A500082EF8093E8008D8987FF37C09091E8003E
:105A600090FFFCCF982F907609F0F4C09E894F8963
:105A7000588D2F89188D91112FC0803851F5809144
:105A800011068093F1001092F1008EEF8093E800F0
:105A90006C960FB6F894DEBF0FBECDBFDF91CF91ED
:105AA000FF91EF91BF91AF919F918F917F916F91F6
:105AB0005F914F913F912F911F910F91FF90EF9028
:105AC0000F900FBE0F901F9018959EEF9093E800D7
:105AD000C9CF1092F100D7CF913059F48111D5CFB1
